:100000000C9441060C9469060C9469060C946906DC
:100010000C9469060C9469060C9469060C946906A4
:100020000C9469060C9469060C9469060C94DB2206
:100030000C9469060C9469060C9469060C94690684
:100040000C9464230C9469060C9469060C9469065C
:100050000C9469060C9469060C9469060C94690664
:100060000C9469060C94690605A84CCDB2D44EB91F
:100070003836A9020C50B9918688083CA6AAAA2A4B
:10008000BE000000803FDCEEEEEEEEEEEEEEEEEEB9
:10009000EEEEEEEEEEADF0017100000000D00000DB
:1000A0000DD00000055FF00CEEEEEEEA00F00D0062
:1000B0000FF00000005FF000D555005D00F00FD09C
:1000C0000FF00D50000FF080F500000F00F00FF062
:1000D0000FF00FCA800FF000F000D00B00F04FF0CF
:1000E0000FF00F55000FF080F0D0F50005F44FF041
:1000F0000BB00F50005FF000F0B0F55555F46FF005
:1001000000000F00005FF080F000BCEEEAB66FF078
:1001100000000F008CAFF000F500000066666FBCB9
:10012000EEEEAF50005FF040B555000666666F001A
:1001300000000B55000FF5000CEEEEEEEEEEAB00FE
:100140000000CEEA000FF55000CEEEEEEEEEEEEE41
:10015000EEEEEEEA005FF5550000000055CEEA55E0
:1001600008888800005FF55550000000000330004B
:1001700000000000055FBCEEEEEEEEEEEEEEEEEE01
:10018000A88888CEEEAB0000000000000000000050
:10019000000000000000000000000000000000005F
:1001A000000000000000000000000000000000004F
:1001B000000000000000000000000000000000003F
:1001C000000000000000000000000000000000002F
:1001D000000000000000000000000000000000001F
:1001E000000000000000000000000000000000000F
:1001F00000000000000000000000000000000000FF
:1002000000000000000000000000000000000000EE
:1002100000000000000000000000000000000000DE
:1002200000000000000000000000000000000000CE
:1002300000000000000000000000000000000000BE
:1002400000000000000000000000000000000000AE
:10025000000000000000000000000000000000009E
:10026000000000000000000000000000000000008E
:10027000000000000000000000000000000000007E
:100280000000000000004024FFFFFFFFFFFFFFFF12
:100290008000000000304001800000000060E001AC
:1002A000819BE78000C1F001819BEFC001C1F80193
:1002B000819B0CC003FDF001819B0CC003FCE40199
:1002C000819B0CC007F84001819BECC00FF000013E
:1002D000819BECC01818C201819B0CC0383CE60120
:1002E000819B0CC0307FE701819B0CC07FFDFF012B
:1002F000819B0CC0FF3DFF81819B0CC1FE18CF810B
:1003000081FB0FC1FC00CE4180F30783041006215E
:10031000800000060E38841F800000000F79843FA3
:100320009F060F3E1FFBCE3F9F861FBE1F7FDF7FB6
:10033000998F19B00E7BFF01998F19B00633DE013A
:10034000998F19B004218E019F8F1830020104117A
:100350009F9F99BE026007E19F1F9B3E00738FC164
:100360009B19983001F7DFC19B1999B000FFFF81FD
:100370009B1F99B000F7C0019BBFD9B000E380017B
:1003800099B0DFBE0061040199B0CF3E00000001CA
:10039000800000006533B3B980018000723AAA91F1
:1003A000FFFFFFFF722BB3937006750681068D0663
:1003B0002F00566F6C756D653A004261636B6C6916
:1003C0006768743A004C696768743A002F340042D9
:1003D0006174206C766C3A006D56004261743A008C
:1003E0000500400150015C01700180016C01540165
:1003F0006001740184014C015C0168017C018C0185
:100400000000153A616363657074000A576F727378
:10041000742020202020000A4265737420202020B0
:10042000202000596F75722074696D6520004E455B
:1004300057204849474853434F524500424553547B
:100440002054494D4553004E4557204C4150210002
:10045000101000002002000000000000104000000A
:1004600000000000008000004000000000080400C0
:10047000000010100000000000C000A000903F88A5
:1004800020042002200220043F88009000A000C029
:100490000000000010100000000007E0042004200D
:1004A0000420042004203C3C2004100808100420F0
:1004B0000240018000001010000000000300050051
:1004C000090011FC200440044004200411FC090030
:1004D0000500030000000000101000000180024031
:1004E00004200810100820043C3C042004200420B0
:1004F0000420042007E0000000001010002020026B
:100500000480800800001044020040220000088897
:10051000000142000040000884001080101000001C
:1005200004100820104020804100800800110022A3
:1005300004400880100020100020004000801010AF
:1005400000000000000019981998066006601998CC
:1005500019980660066019981998000000000000BC
:100560001010AAAA000180000FF19FF81C39999879
:100570001A599A5819999C381FF98FF00001800078
:1005800055551010AAAA000180000FF19FF81C39E0
:1005900098181819981818199C381FF98FF000012D
:1005A000800055551010AAAA00010000FFF1FFF8C5
:1005B000003900180019001800190038FFF9FFF081
:1005C000000100005555101098181819981818199E
:1005D0009818181998181819981818199C381FF98C
:1005E0008FF00001800055551010AAAA000080006D
:1005F0000FFF9FFF1C0098001800980018009C0037
:100600001FFF8FFF0000800055551010AAAA00019F
:1006100080000FF19FF81C399818181998181819AC
:100620009818181998181819981818191010AAAAB3
:1006300000000000FFFFFFFF0000000000000000BE
:1006400000000000FFFFFFFF0000000055551010E4
:100650009818181998181819981818199818181916
:100660009818181998181819981818199818181906
:10067000506C617900486967682073636F726573B5
:100680000053797374656D20496E666F004D616922
:100690006E204D656E750003053F213F0A100A125A
:1006A00008120E1C0E0C1E0C141A14161F161E1304
:1006B0001E1E1B1E1E1F1E3F213F3A2F3A173D17BD
:1006C0003F213F181F02040A041F0E04040E1F0AD4
:1006D0001F0A0E0E1F04110E2E252E2F2A2E26293C
:1006E00029021F02081F08150E04040E150E151509
:1006F0001B151B040604040C040000000017000373
:1007000000031F0A1F16371A1904130A153A0003AB
:1007100000000E11110E000A040A040E040030003D
:100720000404040010001804031F111F121F101DE1
:10073000151711151F07041F17151D1F151D010182
:100740001F1F151F17151F000A00003200040A1191
:100750000A0A0A110A040115020E11171E051E1FAE
:10076000150A0E110A1F110E1F15111F05010E117A
:100770001D1F041F111F1108100F1F041B1F101035
:100780001F061F1E040F0E110E1F09060E112E1F2D
:10079000051A121509011F011F101F0F180F1F0C3A
:1007A0001F1B041B031C03191513001F110304183E
:1007B000111F000201022020200001020C121E1F46
:1007C000120C0C12120C121F0C1A14041E05242AEF
:1007D0001E1F021C141D1020201D1F0814111F10A5
:1007E0001E041E1E021C0C120C3E0A040C123E1E9D
:1007F000040214160A020F120E101E0E100E1E080E
:100800001E120C1226281E322A26041E21001F004A
:10081000211E040102013F213F05077F4141417F25
:100820003E5B4F5B3E3E6B4F6B3E183C783C18186E
:100830003C7E3C181C577D571C1C5E7F5E1C007E56
:1008400043437E007E73737E007E7F7F7E7F4141C7
:10085000417F30483A060E06297929067F414141F9
:100860007F60703F02042A1C361C2A7F3E1C080051
:1008700000081C3E7F14227F22143C3C3C7EFF1863
:10088000423C817E3E6375633E3E616B633E3E63E8
:100890006B6B3E04027F020410207F201008082AA0
:1008A0001C08081C2A0808143E5541226375697506
:1008B0006310181C1810040C1C0C0400000000002D
:1008C00000005F00000007000700147F147F14047D
:1008D0002A7F2A10231308646236495620500008E4
:1008E000070300001C2241000041221C002A1C3E7C
:1008F0001C2A08083E080800E060000008080808F4
:1009000008006060000060100804033E5149453E45
:1009100000427F400062514949462141494D331808
:1009200014127F1027454545393C4A494930412139
:100930001109073649494936064949291E0000244C
:1009400000000080640000081422410014141414F4
:1009500014004122140802015909063E415D594E16
:100960007C1211127C7F494949363E414141227F28
:100970004141221C7F494949417F090909013E4102
:100980004151327F0808087F00417F4100204141EA
:100990003F017F081422417F404040407F020C020B
:1009A0007F7F0204087F3E4141413E7F09090906DD
:1009B0003E416141BE7F0919294626494949320114
:1009C000017F01013F4040403F1F2040201F3F402A
:1009D00038403F63140814630304780403615149E9
:1009E0004543007F41410003040810600041417FFE
:1009F0000004020102048080808080000307080058
:100A000020545478407F284444383844444428389B
:100A10004444287F3854545418087E09090218A405
:100A2000A49C787F0804047800447D400000608026
:100A3000847D7F1010284400417F40007C047804AE
:100A4000787C080404783844444438FC182424187A
:100A500018242418FC7C0804040808545454200466
:100A60003F4444203C4040207C1C2040201C3C4013
:100A700020403C44281028444C9090907C4464547E
:100A80004C44000836410000007F00000041360859
:100A900000180408100C7F4141417F0A4E6F20531B
:100AA000442063617264206F720A6E6F204C4F4164
:100AB0004445522E4845580A0A153A45786974004B
:100AC0001D20466C617368696E670A20206C6F6137
:100AD0006465722E2E2E0A0A444F4E275420545518
:100AE000524E204F464621004E4F2042415454451D
:100AF00052590A0A504C454153450A5455524E200A
:100B00004F464600177361766500166261636B009D
:100B10001574797065000A0A0A153A6F6B617920BD
:100B2000163A6564697400596F7520656E74657254
:100B300065640A00540A03E181867F3E186D830FC5
:100B40000F0E0183866033186DC3198F1803C38E8F
:100B50006033186DE330CF1803C39E603630CDE3A9
:100B600060CF3006C79E7E3E30CDB360CF300CC61E
:100B7000F6603330D9B660CF33CFCCF66061B0DBEE
:100B80001E60CF30D86CE6C061B0DB1E618F199853
:100B90006CC6C063B19B0E330F0FB078C6FF7E1FCB
:100BA0001B061E0F1753440016137800161314006B
:100BB00015102000152010000000050089300802E3
:100BC00038024978681400004500680100000500FB
:100BD0006801380100000500380168010000F6E8EE
:100BE000DBCFC3B8AEA49B928A827B746E68625CD2
:100BF00057524E4945413E3A3734312E2C2927254C
:100C000023211F1D1C1A1917161514131211100F6A
:100C10000E0D0C0B0A090807061D0C210C0101F72B
:100C2000030101FF0300000000240027002A000048
:100C3000000000250028002B0000000000230026F3
:100C40000029000404040404040404020202020251
:100C50000203030303030301020408102040800180
:100C60000204081020010204081020000000070000
:100C70000201000003040600000000000000000064
:100C8000D10611241FBECFEFD8E0DEBFCDBF11E0EB
:100C9000A0E0B1E0E4E2F7E502C005900D92A633D2
:100CA000B107D9F714E0A6E3B1E001C01D92A53267
:100CB000B107E1F71CE0C2E8DCE004C02297FE01C6
:100CC0000E94D72AC038D107C9F70E9492250C94F8
:100CD000902B0C94000083E08093190280E090E058
:100CE000A0EAB1E48093010290930202A093030270
:100CF000B09304028093050290930602A09307022A
:100D0000B093080280E090E0A0E0B0E08093090298
:100D100090930A02A0930B02B0930C0280930D02F1
:100D200090930E02A0930F02B093100280931102D1
:100D300090931202A0931302B093140280931502B1
:100D400090931602A0931702B09318020895109280
:100D50004E010E946B0610921B0210921A02109212
:100D60001C020895E62FF0E0982F969580FF0CC0A6
:100D700024E0EE0FFF1F2A95E1F7E90FF11DEA5776
:100D8000FF4F84918F70089584E0EE0FFF1F8A95C6
:100D9000E1F7E90FF11DEA57FF4F849182958F70BB
:100DA0000895109287011092860181E391E090935B
:100DB00085018093840108953F924F925F926F92D4
:100DC0007F928F929F92AF92BF92CF92DF92EF92DB
:100DD000FF920F931F93DF93CF9300D000D000D0EA
:100DE000CDB7DEB784E891E060E040E022E102E1C7
:100DF0000E94D11284E891E060E00E94FF118824F3
:100E0000992474C040900502509006026090070239
:100E1000709008022D813E81B901882777FD809569
:100E2000982F0E94B8287B018C016091010270917B
:100E30000202809103029091040220E030E040E839
:100E40005DE30E94A5299B01AC01C801B7010E9486
:100E50001E2820E030E040E051E40E941D280E945E
:100E600085285B016C0130E2361788F169817A814F
:100E70008B819C810E94B8287B018C01C301B20147
:100E800020E030E040E85DE30E94A5299B01AC0131
:100E9000C801B7010E941E2820E030E040E051E484
:100EA0000E941D280E9485289B01AC0127FD0FC0D0
:100EB00061326CF48A2D622F0E94B206883038F4B9
:100EC0006D816F5F84E891E0432D0E9407128D8150
:100ED0009E8101969E838D83409709F093CF08945D
:100EE000811C911C90E18916910471F01E821D8273
:100EF000C401AA2797FDA095BA2F89839A83AB8353
:100F0000BC83382C33947ECF84E891E061E00E946A
:100F1000FF1184E891E069E049E00E9407122696FB
:100F20000FB6F894DEBF0FBECDBFCF91DF911F91FA
:100F30000F91FF90EF90DF90CF90BF90AF909F9078
:100F40008F907F906F905F904F903F900895CF92D9
:100F5000DF92EF92FF920F931F93CF93DF938091D5
:100F6000BE019091BF012FEF813F920714F4EE2450
:100F700056C060E170E00E94852AE62E50C0809144
:100F8000BC019091BD014FEF813F940714F4FF2401
:100F900005C060E170E00E94852AF62E690154E0E8
:100FA000CC0CDD1C5A95E1F720C08F2D6E2D0E94D0
:100FB000B20644E0CC0FDD1F4A95E1F7C01BD10B10
:100FC0002091BE013091BF01A601421B530BE82FB7
:100FD000F0E0EE0FFF1FE55FFE4F2081318184E8D6
:100FE00091E06C2F0E94E114F394CF2DD0E000919A
:100FF000BC011091BD0181E00C3A18071CF060E2C1
:1010000070E009C0C8018C5A9F4F60E170E00E94F7
:10101000852A6F5F7F4FC617D7073CF2E3942E2DCA
:1010200030E08091BE019091BF0141E0803D940786
:101030001CF060E270E007C0C09660E170E00E94C2
:10104000852A6F5F7F4F261737070CF498CFDF9103
:10105000CF911F910F91FF90EF90DF90CF90089567
:101060000F931F9306E311E0C80166E872E00E9447
:101070001D20C8010E9475191F910F9108950F93AB
:101080001F9310928D0180E390918901891B8093B9
:101090008E0104E811E0C80161E040E00E94031203
:1010A00060911A0270911B02C8014AE050E00E9450
:1010B000B9261F910F9108954F925F926F927F9280
:1010C0008F929F92AF92BF92CF92DF92EF92FF9258
:1010D0000F931F93CF93DF936091010270910202EF
:1010E00080910302909104020E9485282B01809137
:1010F000BC019091BD01481A590A20910502309116
:10110000060240910702509108020091BE01109121
:10111000BF01C20140968536910508F074C0CA012E
:10112000B9010E948528EB01C01BD10B8FEFC03F96
:10113000D8070CF468C0C133D1050CF064C084E852
:1011400091E0642D4C2F209119020E942C1484E808
:1011500091E060E00E94FF11E0901502F09016020D
:101160000091170210911802C801B7010E9482284D
:101170005B016C01C801B7010E94082A3B014C01C8
:10118000B201882777FD8095982F0E94B8287B01AF
:101190008C01C601B50120E030E040E850E40E9437
:1011A000A5299B01AC01C801B7010E941E280E941D
:1011B00085285B016C01BE01882777FD8095982FFB
:1011C0000E94B8287B018C01C401B30120E030E00B
:1011D00040E850E40E94A5299B01AC01C801B70179
:1011E0000E941E280E9485287B018C0184E891E0E2
:1011F000642D4C2F2A2D0E2D0E94401284E891E080
:1012000061E00E94FF11DF91CF911F910F91FF903C
:10121000EF90DF90CF90BF90AF909F908F907F9096
:101220006F905F904F9008952F923F924F925F92F0
:101230006F927F928F929F92AF92BF92CF92DF92E6
:10124000EF92FF920F931F93DF93CF930F92CDB73F
:10125000DEB780E491E062E041E00E94B9118823AA
:10126000B1F0609115027091160280911702909171
:10127000180225E438ED40E25EE30E941E286093E8
:10128000150270931602809317029093180280E45F
:1012900091E060E041E00E94B9118823B1F06091D3
:1012A000150270911602809117029091180225E4A0
:1012B00038ED40E25EE30E941D28609315027093B2
:1012C0001602809317029093180280E491E064E084
:1012D00041E00E94B9118823B1F060910902709138
:1012E0000A0280910B0290910C022AE037ED43EA4A
:1012F0005CE30E941E286093090270930A028093A7
:101300000B0290930C0280E491E065E041E00E94C2
:10131000B911882309F442C06091090270910A0250
:1013200080910B0290910C022DEC3CEC4CE45FE3BD
:101330000E94A5296093090270930A0280930B0210
:1013400090930C0260910D0270910E0280910F0239
:10135000909110022DEC3CEC4CE45FE30E94A52937
:1013600060930D0270930E0280930F02909310020F
:1013700060911102709112028091130290911402F7
:101380002DEC3CEC4CE45FE30E94A5296093110234
:101390007093120280931302909314022090010222
:1013A00030900202409003025090040260910502C6
:1013B00070910602809107029091080220E030E0CF
:1013C00040E85DE30E94A5290E948A287B018C01E8
:1013D0006983C201B10120E030E040E85DE30E9492
:1013E000A5290E948A28DC01CB016E2D0E94B2063D
:1013F000D82E25E0821709F440C086E0D81609F4FB
:1014000077C0DD2009F08BC06091090270910A025B
:1014100080910B0290910C0223E333E343E75FE3F7
:101420000E94A5296093090270930A0280930B021F
:1014300090930C0260910D0270910E0280910F0248
:101440009091100226E636E646E65FE30E94A52963
:1014500060930D0270930E0280930F02909310021E
:101460006091110270911202809113029091140206
:1014700026E636E646E65FE338C0609109027091E1
:101480000A0280910B0290910C0226E636E646E6AF
:101490005FE30E94A5296093090270930A0280937A
:1014A0000B0290930C0260910D0270910E028091DC
:1014B0000F02909110022DEC3CEC4CE45FE30E9493
:1014C000A52960930D0270930E0280930F029093F2
:1014D000100260911102709112028091130290919A
:1014E00014022DEC3CEC4CE45FE30E94A52992C071
:1014F0006091090270910A0280910B0290910C0296
:1015000023E333E343E35FE30E94A52960930902E9
:1015100070930A0280930B0290930C0283C0609137
:10152000090270910A0280910B0290910C0223E350
:1015300033E343E75FE30E94A529609309027093B8
:101540000A0280930B0290930C0260910D0270913D
:101550000E0280910F029091100226E636E646E6D2
:101560005FE30E94A5297B018C0160930D027093BB
:101570000E0280930F0290931002609111027091FD
:101580001202809113029091140226E636E646E696
:101590005FE30E94A5296093110270931202809369
:1015A000130290931402E2E0DE16B1F0ED1520F084
:1015B000F1E0DF16B9F507C023E0D216A1F0E4E0B0
:1015C000DE1681F521C0C801B70120E030E040E817
:1015D0005FE30E941E280FC020E030E040E85FE398
:1015E0000E941E2817C0C801B70120E030E040E883
:1015F0005FE30E941D2860930D0270930E0280939A
:101600000F02909310020EC020E030E040E85FE34C
:101610000E941D286093110270931202809313029E
:1016200090931402E0901502F090160200911702B8
:1016300010911802C801B7010E948228A0900902E7
:10164000B0900A02C0900B02D0900C02A601950146
:101650000E94A52920910D0230910E0240910F02A7
:10166000509110020E941E283B014C0160930D0214
:1016700070930E0280930F0290931002C801B7017D
:101680000E94082AA60195010E94A5299B01AC0190
:1016900060911102709112028091130290911402D4
:1016A0000E941E286093110270931202809313020D
:1016B00090931402C201B101A40193010E941E285B
:1016C0007B018C01609301027093020280930302FC
:1016D0009093040220E030E040E85DE30E94A529F9
:1016E0000E948A28DC01CB0169810E94B206D82EB3
:1016F000F7E0F81708F05BC0C801B701A401930137
:101700000E941D28609301027093020280930302DD
:101710009093040228E0D21601F5C401B30120E041
:1017200030E040E050E00E94A12988232CF080E0C6
:1017300090E0A0ECB0EC04C080E090E0A0ECB0E45D
:1017400080930D0290930E02A0930F02B0931002AB
:101750008BE591E00E94FF2214C0C401B30120E098
:1017600030E040E05FEB0E94A52960930D0270938A
:101770000E0280930F02909310028BE591E00E947D
:101780000B236091090270910A0280910B029091E3
:101790000C0220E030E040E05FE30E94A529609366
:1017A000090270930A0280930B0290930C026090DE
:1017B0001102709012028090130290901402C401E2
:1017C000B301209105023091060240910702509129
:1017D00008020E941E285B016C0160930502709351
:1017E00006028093070290930802609101027091B3
:1017F0000202809103029091040220E030E040E870
:101800005DE30E94A5290E948A287B018C01C60104
:10181000B50120E030E040E85DE30E94A5290E9488
:101820008A289B01AC018E2D622F0E94B206182FD0
:10183000883008F45AC0C601B501A40193010E9482
:101840001D2860930502709306028093070290930F
:101850000802183001F5C401B30120E030E040E097
:1018600050E00E94A12988232CF080E090E0A0ECB9
:10187000B0EC04C080E090E0A0ECB0E480931102F2
:1018800090931202A0931302B09314028BE591E09F
:101890000E94FF2214C0C401B30120E030E040E008
:1018A0005FEB0E94A529609311027093120280934E
:1018B0001302909314028BE591E00E940B23609138
:1018C000090270910A0280910B0290910C0220E0B3
:1018D00030E040E05FE30E94A52960930902709325
:1018E0000A0280930B0290930C02E0901502F09094
:1018F00016020091170210911802C801B7010E9448
:1019000082283B014C01A0900902B0900A02C090CD
:101910000B02D0900C02C801B7010E94082AA60150
:1019200095010E94A52920E030E040E852E40E94A1
:10193000A52920910502309106024091070250919D
:1019400008020E941E2820E030E040EC51E40E9492
:101950001D280E9485287B018C01C401B301A601CA
:1019600095010E94A52920E030E040E852E40E9461
:10197000A529209101023091020240910302509169
:1019800004020E941E2820E030E048E252E40E9457
:101990001D280E948528DC01CB014091BC0150919B
:1019A000BD019A01220F331F240F351F820F931F91
:1019B00064E070E00E94852A7093BD016093BC01D1
:1019C0002091BE013091BF01C901880F991F820F7C
:1019D000931F8E0D9F1D64E070E00E94852A709316
:1019E000BF016093BE010F90CF91DF911F910F91C6
:1019F000FF90EF90DF90CF90BF90AF909F908F902F
:101A00007F906F905F904F903F902F9008950F932D
:101A10001F93CF93DF93EC018BE591E060EE73E0D1
:101A200040E00E94F8200CE018E286E391E00E947A
:101A3000C0198823D1F360E070E080E090E022E0FC
:101A400030E040E050E00E94F7276E5F60938D0128
:101A500060E070E080E090E022E030E040E050E0C4
:101A60000E94F72760938E0184E891E06EE274E0B3
:101A70000E94CB2510928D0100938E0184E891E0A5
:101A800063E274E00E94CB2584E891E0BE014AE065
:101A900050E00E94B92684E891E067E174E00E947A
:101AA000CB256091C0017091C10184E891E04AE0CA
:101AB00050E00E94572784E891E06BE074E00E94B8
:101AC000CB256091C8017091C90184E891E04AE09A
:101AD00050E00E94572710928D0110938E0184E8E8
:101AE00091E062E074E00E94CB2580E491E064E044
:101AF0000E94AF11882309F498CF8BE591E00E94F2
:101B0000FF22DF91CF911F910F910895CF92DF9225
:101B1000EF92FF920F931F93CF93DF93ABE0CA2E08
:101B2000D12CF5E1EF2EF12C86E391E00E94C01953
:101B30008823D1F360E070E080E090E022E030E0C4
:101B400040E050E00E94F727675F60938D0160E0FE
:101B500070E080E090E022E030E040E050E00E9461
:101B6000F72760938E0184E891E06CE374E00E94B3
:101B7000162610928B0110928D018091890180931D
:101B80008E0100EC11E0C0E0D0E0F801808191818D
:101B9000892B31F484E891E06DE20E94EE250DC0BE
:101BA000CC9DB001CD9D700DDC9D700D1124665350
:101BB0007E4F84E891E00E948927809188019701F7
:101BC000281B3109C901880F991F880F991F80931D
:101BD0008D0121968091890190E0FC01CE9FC0018A
:101BE000CF9F900DDE9F900D112480938E01F80100
:101BF000619171918F0184E891E04AE050E00E9488
:101C00006A27C530D10509F680E491E064E00E94BE
:101C1000AF11882379F480E491E065E00E94AF1170
:101C2000882341F480E491E066E00E94AF118823AC
:101C300009F47ACF8BE591E00E94FF22DF91CF91EA
:101C40001F910F91FF90EF90DF90CF9008954F92EA
:101C50005F926F927F928F929F92AF92BF92CF923C
:101C6000DF92EF92FF920F931F93DF93CF93CDB745
:101C7000DEB72A970FB6F894DEBF0FBECDBF8C013A
:101C80008091C8019091C9010817190708F0B4C0E4
:101C9000C8010E94070D86E391E066EF71E00E94A3
:101CA000451886E391E066EF71E04BE00E94791AF7
:101CB0001093C9010093C80196ECC92E91E0D92E6A
:101CC00083E0A82EB12C0BE0402E512C3E0108944D
:101CD000611C711C45010894811C911CF601208136
:101CE0003181828193818217930764F010EC812EF9
:101CF00011E0912EAA24BB24CC24DD24BBE06B2E62
:101D0000712C69C0A49C7001A59CF00CB49CF00CD3
:101D100011248AEC91E0E80EF91EC301B7010E947C
:101D20003C2B849C8001859C100D949C100D1124EB
:101D300006531E4FC701B8010E943C2BC801B301D6
:101D40000E943C2BF6012081318182819381918315
:101D50008083338322838EEF9FEFC80ED91E0894B1
:101D6000A108B1089EEBC91691E0D90609F0B2CFDF
:101D7000BDCFB8016C0D7D1D8BE194E0F701419161
:101D80007F010E945B230F5F1F4F0A30110589F707
:101D90008AE090E0C80ED91E8BE194E0B601F40110
:101DA00040810E945B230894C11CD11CF401418135
:101DB0008BE194E0B6010E945B230894A11CB11C46
:101DC00082E090E0880E991E0894C11CD11C95E019
:101DD000A916B10471F0A69C7001A79CF00CB69CEA
:101DE000F00C1124EAECF1E0EE0EFF1E00E010E032
:101DF000C0CF0E94860D07C086E391E067E474E0DF
:101E000044E10E94A5172A960FB6F894DEBF0FBED4
:101E1000CDBFCF91DF911F910F91FF90EF90DF9099
:101E2000CF90BF90AF909F908F907F906F905F907A
:101E30004F900895EF92FF920F931F9360910102CC
:101E400070910202809103029091040220E030E040
:101E500040E85DE30E94A5290E948A287B018C014D
:101E6000609105027091060280910702909108022C
:101E700020E030E040E85DE30E94A5290E948A2826
:101E80009B01AC018E2D622F0E94B206873061F556
:101E900080911C02882341F481E080931C021092FF
:101EA0001B0210921A0220C080911A0290911B020C
:101EB0004597D0F084E891E069E178E00E944F1501
:101EC00080911A0290911B020E94270E84E891E0F3
:101ED00067E976E00E944F1510921B0210921A02D9
:101EE00010921C020E946B0680911C02882349F00C
:101EF00080911A0290911B02019690931B0280938D
:101F00001A021F910F91FF90EF90089584E891E0DD
:101F100067E976E00E944F1586E391E00E94C019C0
:101F20008823D1F380E491E066E00E94AF1188231A
:101F300039F084E891E069E178E00E944F15089556
:101F40000E9414090E941A0F0E94A7070E94DC0633
:101F50000E943F080E945C08DFCF86E391E068EAB8
:101F600073E044E00E94581D813051F0823059F0F6
:101F7000882309F082C00E94A7060E94860F089558
:101F80000E94860D089586E391E00E94C01988237F
:101F9000D1F380E491E066E00E94AF11882329F03C
:101FA0008BE591E00E940523089584E891E06BEDB4
:101FB00073E00E94CB25609150017091510184E83B
:101FC00091E04AE050E00E94B92684E891E068ED93
:101FD00073E00E94162684E891E06FEC73E00E94A3
:101FE000CB2584E891E060914F014AE050E00E94E7
:101FF000E72684E891E06CEC73E00E94162684E802
:1020000091E065EC73E00E94CB25609137017091FF
:10201000380184E891E04AE050E00E94CA2684E852
:1020200091E06AEB73E00E94CB2584E891E0609137
:1020300039014AE050E00E94F92684E891E062EB21
:1020400073E00E94CB258BE591E00E941E23682F50
:1020500084E891E04AE050E00E94E72684E891E0BD
:1020600060EB73E00E94CB2584E891E06091610110
:102070004AE050E00E94F92686CF0E943008089579
:102080000E94AD0F08956F927F928F929F92AF92B0
:10209000BF92CF92DF92EF92FF920F931F93CF9355
:1020A000DF9330EC832E31E0932EAA24BB24CC2482
:1020B000DD242BE0622E712C39C0BE016C0D7D1D1C
:1020C0008BE194E00E946023F80181938F012196B7
:1020D000CA30D10591F7B601665F7F4F8BE194E07E
:1020E0000E946023082F10E0F40111830083B601E1
:1020F000655F7F4F8BE194E00E946023F82EEE2411
:10210000C701800F911F009711F48FE097E2F4014F
:10211000819391934F010894A11CB11C8CE090E035
:10212000C80ED91E95E0A916B10461F0A69C8001E5
:10213000A79C100DB69C100D112406531E4FC0E035
:10214000D0E0BBCFDF91CF911F910F91FF90EF9027
:10215000DF90CF90BF90AF909F908F907F906F90C7
:10216000089586E391E00E94232084E891E069E1EC
:1021700078E00E944F150E9443100E943008089595
:102180002CB5382F33702C7F322B3CBD2DB590E011
:10219000959587959595879581702E7F822B8DBD1E
:1021A00008958AE061E00E942F258AE061E00E94A4
:1021B000C3248CB580618CBD8CB580648CBD8DE0F2
:1021C00061E00E94C3248BE061E00E94C324089573
:1021D000FC0181E08083089585E070E00E94632423
:1021E00008956F927F928F929F92AF92BF92CF92FB
:1021F000DF92EF92FF920F931F93CF93DF93EC0147
:1022000089819A818C0124E0000F111F2A95E1F742
:10221000081B190B85E10E944124BC01600F711F4E
:1022200084E0769567958A95E1F77A83698388815A
:10223000882381F12E813F816217730710F4B90161
:1022400006C0888599858617970708F4BC0100D0D9
:1022500000D080E090E040E050E0E884F98400E0C5
:1022600010E0AD80BB24CC24DD246C80772488244E
:102270009924EDB7FEB761827282838294820E94B4
:102280008C276B830F900F900F900F9085E070E07C
:102290000E946324DF91CF911F910F91FF90EF90E7
:1022A000DF90CF90BF90AF909F908F907F906F9076
:1022B0000895FC018CE39FE09383828384E0818313
:1022C00081E084870895CF93DF93EC018C8590E0C3
:1022D0008F719070892B69F584E10E944124AA27AF
:1022E00097FDA095BA2FBC01CD010E94B82826EE1B
:1022F0003FE34EEC50E40E94A5290E948A289B01EE
:10230000AC017B836A836115710589F084E0898360
:10231000B901FE0120E0848195816817790710F4E6
:1023200029830AC02F5F32962430A9F702C08FEFAD
:1023300089838C858F5F8C87DF91CF910895FC0115
:1023400088E0808389E0818387E0828386E08383DD
:1023500084E0848382E0858381E18683089520E0A0
:10236000FC01E60FF11D8781813009F421E0822F05
:102370000895E62FF0E0423040F420E0E80FF91F26
:10238000878181508E3F88F40FC0E80FF91F878145
:102390008F3F11F420E009C020E090E0642F70E04E
:1023A0000E94712A019709F421E0822F08950F936A
:1023B0001F93CF93DF93EC0110E00FEF888162E071
:1023C0000E94C32488810E9462252F81892B19F4E1
:1023D0002F5F2F8307C0222349F02F3F11F41F8264
:1023E00001C00F83888160E00E94C3241F5F219693
:1023F000173021F7DF91CF911F910F910895FC01C4
:10240000678F60A30895FC01678F40A30895FC01C6
:102410006435A8F547FD33C040338CF5878D942F84
:10242000959595959595772767FD709547708823C5
:1024300099F0E4E59E02F0011124E60FF71FE35E38
:10244000FD4F81E090E002C0880F991F4A95E2F7A6
:102450002081282B20830895E4E59E02F0011124B9
:10246000E60FF71FE35EFD4F81E090E002C0880FAA
:10247000991F4A95E2F780952081282320830895AB
:10248000AF92BF92CF92DF92EF92FF920F931F9382
:10249000CF93DF93EC01162FF42EE22EAA24402FC7
:1024A000552747FD50958F2D992787FD9095481BFF
:1024B000590B57FF03C0509541955F4F2E2D332781
:1024C00027FD3095812F992787FD9095281B390B83
:1024D00037FF03C0309521953F4F2417350744F44B
:1024E000AA24A3948F2DF12E182F802F0E2DE82EC5
:1024F000E11634F48E2DE12E182F802F0F2DF82E9B
:10250000DE2CD11A202F332727FD30958F2D9927C8
:1025100087FD9095281B390B37FF03C03095219517
:102520003F4FB22EF0161CF0CC24CA9402C0CC242B
:10253000C3948D2DD7FC8F5F082F059511C0AA205D
:1025400021F0CE016F2D412F03C0CE01612F4F2D01
:102550000E9407120B1907FF02C0FC0C0D0D1F5F34
:10256000E1166CF7DF91CF911F910F91FF90EF90E3
:10257000DF90CF90BF90AF9008950F93042F322F2C
:10258000262F2150230F0E9440120F9108950F9380
:10259000362F042F0150020F232F0E9440120F915B
:1025A00008959F92AF92BF92CF92DF92EF92FF92E7
:1025B0000F931F93CF93DF936C01B62E942EA02E12
:1025C000C0E0D0E0E62EFF24E7FCF094022F1127B4
:1025D00007FD10950E0D1F1D06C0C601492D2A2DA1
:1025E0000E94C71221966B2D6C0FCE018E0D9F1D80
:1025F0008017910794F3DF91CF911F910F91FF9076
:10260000EF90DF90CF90BF90AF909F9008952F9262
:102610003F925F926F927F928F929F92AF92BF9202
:10262000CF92DF92EF92FF920F931F93DF93CF939E
:1026300000D000D000D0CDB7DEB79E838D83C62EEC
:10264000D42EEE24E394E21A8EEF289F502C11240E
:10265000842E8A94962E9A94A42EA394B62EB39484
:10266000F22E662423E0722E10E0C8018470907070
:102670009A838983F801E270F070FC83EB8398E021
:10268000292E312C202231220170107054C0E7FC19
:1026900004C0FA94F2E05F0EE50C639489819A819C
:1026A000892B71F04F2D4D0D8D819E816B2D0E94D8
:1026B00007126F2D6C0D8D819E814A2D0E9407128D
:1026C000EB81FC81EF2B71F04D2D4F198D819E8197
:1026D0006B2D0E9407126F2D6C0D8D819E81482DF0
:1026E0000E9407122114310471F06C2D6F198D8135
:1026F0009E814A2D0E9407124F2D4D0D8D819E8186
:10270000692D0E9407120115110571F06C2D6F19CA
:102710008D819E81482D0E9407124D2D4F198D816C
:102720009E81692D0E940712E70CF2E07F0E8A94C9
:102730009A94A394B3946F140CF4A9CF26960FB671
:10274000F894DEBF0FBECDBFCF91DF911F910F91E7
:10275000FF90EF90DF90CF90BF90AF909F908F90C1
:102760007F906F905F903F902F9008954F925F926F
:102770006F927F928F929F92AF92BF92CF92DF9291
:10278000EF92FF920F931F93CF93DF93EC01A62E4E
:10279000742E9E2DFF24F394F21A8EEF289F802C26
:1027A0001124B42EBA9453E0C52ECE0CE22EDD24B3
:1027B00043E0942E10E031E0432E512C4022512270
:1027C000692E63940270107034C0F7FC04C0EA9460
:1027D00082E0880EF80CD3944114510489F06D2DD9
:1027E0006A0D472D4E192E2D220F260DCE010E9467
:1027F000C7126E2D6A0DCE014B2D2C2D0E94C712D3
:102800000115110589F06A2D6D19472D4E192E2DD0
:10281000220F260DCE010E94C7126A2D6E19CE011D
:102820004B2D2C2D0E94C712F90C82E0980EBA9401
:10283000C80EDE1454F2DF91CF911F910F91FF90DB
:10284000EF90DF90CF90BF90AF909F908F907F9050
:102850006F905F904F900895DF92EF92FF920F93E9
:102860001F937C01062FD42E122F421B220F2F5FA5
:102870000E94C712C701602F4D2D212F03E0EE24C7
:102880000E94B6131F910F91FF90EF90DF90089573
:102890007F928F929F92AF92BF92CF92DF92EF92F0
:1028A000FF920F931F936C01962EA42EF22E7E2C76
:1028B000760E1EEFE19E102D1124812E820E672DC3
:1028C000282D0E94BD12B02EBA0CBA94C601672DF5
:1028D0004B2D282D0E94BD12AE0C100FC601692D84
:1028E0004A2D212F0E94C712F90CFA94C6016F2DB0
:1028F0004A2D212F0E94C712C601672D4A2D2E2D69
:1029000001E00E940713FE18C6016F2D4A2D2E2DDF
:1029100002E00E940713BE18C6016F2D4B2D2E2D0D
:1029200004E00E940713C601672D4B2D2E2D08E0F1
:102930000E9407131F910F91FF90EF90DF90CF90AF
:10294000BF90AF909F908F907F9008958F929F92AD
:10295000AF92BF92CF92DF92EF92FF920F931F93AD
:102960006C01162FA42E922EF02EBE2C8E2C860ECD
:102970002EEFE29EE02C11242E2D290D682D0E94B1
:10298000D112AB0CFA94FE0C1150190D1B19C60193
:10299000612F4A2D2B2D01E0EF2C0E94B613C601AA
:1029A000682D4A2D2B2D02E00E94B6131F910F9126
:1029B000FF90EF90DF90CF90BF90AF909F908F905F
:1029C00008953F924F925F926F927F928F929F9263
:1029D000AF92BF92CF92DF92EF92FF920F931F932D
:1029E000CF93DF934C01362E442EF901A4903196FB
:1029F00054906F010894C11CD11C8A2D992787FD22
:102A00009095079668E070E00E94852AE62EFF24E4
:102A1000E7FCF09400E0C0E0D0E060E8662E712CA6
:102A200026C0E12FE595E595E595FF27E7FDF095B3
:102A3000EC0FFD1FEC0DFD1DE4912E2F30E0812FDA
:102A40008770A30102C0559547958A95E2F7242324
:102A50003523232B31F0612F630DC4014B2D0E94D0
:102A600007121F5F1A15ECF20F5FCE0DDF1D051563
:102A700024F410E0B02EB40CF5CFDF91CF911F916C
:102A80000F91FF90EF90DF90CF90BF90AF909F900D
:102A90008F907F906F905F904F903F900895DC01F2
:102AA000FB0184918F5F14968C93149731968491D7
:102AB0008F5F15968C93159731965E96FC93EE93E7
:102AC0005D9708953F924F925F926F927F928F929F
:102AD0009F92AF92BF92CF92DF92EF92FF920F93AD
:102AE0001F93CF93DF93EC01862EA42E422F102F3D
:102AF0003F8C23E526170CF4ABC03FE23A150CF4EB
:102B0000A7C0C02EDD248C8190E001979C01C29E5D
:102B1000C001C39E900DD29E900D1124262F332705
:102B200027FD3095820F931F181619060CF090C0E0
:102B30008D8190E09C01C29EC001C39E900DD29EEB
:102B4000900D11242A2D332727FD3095820F931FD6
:102B5000181619060CF07CC09924442E55246DC01B
:102B60009C01215030404217530711F460E00EC021
:102B7000429EC001439E900D529E900D1124840FE1
:102B8000951FED8DFE8DE80FF91F64914C9DC001DE
:102B90004D9D900D5C9D900D1124682C680EBB24FA
:102BA000792C780C3FC0E62EFF2460FF19C011304D
:102BB00039F44B2D4A0DCE01672D0E9407122EC00D
:102BC0002C9DC0012D9D900D3C9D900D11244A2DF2
:102BD000480FCE01662D212F012F0E94D1121EC059
:102BE00098A18F8D9817D1F09F8F113039F44B2D0C
:102BF0004A0DCE01672D0E9407120FC02C9DC00107
:102C00002D9D900D3C9D900D11244A2D480FCE0115
:102C1000662D212F012F0E94D1123F8EF594E7944B
:102C20006E2DB3942B2D332727FD30958D8190E0A9
:102C3000281739070CF4B7CF9394492D552747FD32
:102C400050958C8190E0481759070CF489CF3F8E3E
:102C5000DF91CF911F910F91FF90EF90DF90CF9078
:102C6000BF90AF909F908F907F906F905F904F90AC
:102C70003F9008950F93CF93DF93EC01262F6A3096
:102C800049F48D819885899F802D11249A85980F0C
:102C90009A8726C06D3029F169854A8508850E948A
:102CA00062159C816885969F402D11248985480F67
:102CB00049878F818823A9F0552747FD5095699F43
:102CC0009001112484E590E0821B930B84179507F3
:102CD00044F49D81699F902D11248A85890F8A87EC
:102CE000198681E090E0DF91CF910F9108951F93B5
:102CF000CF93DF93EC01162FF8948E8560E00E944D
:102D00002F258F8518161CF460E00E942F251EBD0C
:102D10000DB407FEFDCF8EB58F8518161CF461E04B
:102D20000E942F257894DF91CF911F910895FF92F3
:102D30000F931F93CF93DF93EC01FF2400E010E08B
:102D40006F2D6064CE010E947716CE0160E80E946C
:102D500077168E8561E00E942F258F8518161CF44A
:102D600060E00E942F25F801E35EFD4F90E0808136
:102D70008EBD0DB407FEFDCF8EB59F5F31969435A5
:102D8000B1F78F8518161CF461E00E942F25F3948B
:102D90000C5A1F4F86E0F81699F6CE0160E40E94A7
:102DA0007716DF91CF911F910F91FF900895CF93E8
:102DB000DF93DC0188EF91E0EDE1F2E0EF019C01AF
:102DC000199221503040E1F719961C9219971A96E2
:102DD0001C92DF91CF910895EF920F93CF93DF93E1
:102DE000EC014D876C872E87E88A0F8781E0888702
:102DF0008F8F18A28F83CE0167E976E00E944F156E
:102E00000E94D1108D8561E00E94C3248C8561E011
:102E10000E94C3248E8561E00E94C324888918160D
:102E20001CF461E00E94C3248F8518161CF461E035
:102E30000E94C324888918166CF460E00E942F2534
:102E40006AE070E080E090E00E94E023888961E021
:102E50000E942F25EC852E2F332727FD3095F90171
:102E6000ED5BF34FE491F0E0EE0FFF1FE15DF34FF8
:102E7000859194919C8B8B8B295A334FF9018491C6
:102E80008A8FED852E2F332727FD3095F901ED5BD5
:102E9000F34FE491F0E0EE0FFF1FE15DF34F8591FA
:102EA00094919A8B898B295A334FF9018491898F98
:102EB000EF852E2F332727FD3095F901ED5BF34F7A
:102EC000E491F0E0EE0FFF1FE15DF34F85919491E7
:102ED0009E8B8D8B295A334FF90184918B8FEE8510
:102EE0002E2F332727FD3095F901ED5BF34FE49149
:102EF000F0E0EE0FFF1FE15DF34F85919491988F05
:102F00008F8B295A334FF90184918C8FCE0161E266
:102F10000E947716CE0164E10E9477168B8587FFA9
:102F200002C08FE78B876B856068CE010E947716A1
:102F3000CE0160E20E947716CE016CE00E94771607
:102F4000DF91CF910F91EF900895FC01ED57FF4F66
:102F500061937193445F40830895CF93DF93DC01C5
:102F6000E0E8FFE685919491ED01C75ADF4FAD018E
:102F700041595F4F8150904C09F04EC0E6E9FFE6A1
:102F8000E491E883E7E9FFE6E4911496EC93149763
:102F9000E8E9FFE6E4911596EC931597E9E9FFE679
:102FA0008591949117969C938E931697EBE9FFE683
:102FB0008591949119969C938E931897EDE9FFE66D
:102FC000E4919B96EC939B97EEE9FFE6E4919A9649
:102FD000EC939A97EFE9FFE6E491EA01E883E0EAEF
:102FE000FFE6859194915D969C938E935C97E2EABF
:102FF000FFE6859194915F969C938E935E97E4EAA9
:10300000FFE68591949191969C938E939097E6EA32
:10301000FFE68591949132C08CE3888314961C92CC
:1030200014972FEF15962C93159780E293E017963F
:103030009C938E93169784ED93E019969C938E93B0
:10304000189781E09B968C939B979A968C939A976E
:10305000FA0120838CEA9DE05D969C938E935C97A9
:103060008EED9DE05F969C938E935E9784E79EE045
:1030700091969C938E9390978CE39FE093969C936C
:103080008E939297DF91CF910895E0E8FFE68591C6
:1030900094918150904C51F4DB01EBE8FFE6849170
:1030A0008D9331968FE6E539F807C9F70895EF92C9
:1030B000FF920F931F93CF93DF937C018C01025BF0
:1030C0001F4FC8010E94D716C80160EC7AE00E9429
:1030D000CB25C8010E94971683E00E94C01080E0B3
:1030E00091E0EEEFFFE3099584E590E0E80EF91E2C
:1030F000F7011082C8016BE97AE00E941626C80128
:103100000E949716E701CA54D040CE010E94D71101
:10311000CE0164E00E94AF11882339F462E370E0CD
:1031200080E090E00E94E023F0CFDF91CF911F91EB
:103130000F91FF90EF9008950F931F93CF93DF931C
:10314000EC018C01025B1F4FC80161E040E00E946E
:103150000312FE01E95AFF4FCE5ADF4F85E59881F1
:10316000891B808326961882C855D040698D6130AE
:1031700081F1613028F0888D653008F043C03DC092
:10318000CE0185960E94F420CE0160E00E94EC10F2
:10319000C8010E94D716CA5ADF4F81E08883C80150
:1031A00068EE7AE00E94CB25C8010E94971683B78B
:1031B000817F846083BF83B7816083BF83B7816071
:1031C00083BF889583B78E7F83BF83B78E7F83BF8E
:1031D0001FC0C059DF4F88819981AA81BB818F7040
:1031E0009070A070B0700897A105B10518F4C801DF
:1031F00067E00CC0C80168E709C0882349F06B5F2D
:10320000C80104C0882321F0C8016FE20E94EE25A6
:10321000DF91CF911F910F910895AF92BF92CF92FE
:10322000DF92EF92FF920F931F93CF93DF93EC0106
:10323000CB57DF4F8881C558D040882309F44AC056
:103240008C3010F010E002C01CE0181BCA5ADF4F8F
:1032500081E08883C655D0406EE4C62ED12CCC0EBA
:10326000DD1EC60160E00E94FF1153E5A52EB12CC2
:10327000AC0EBD1EF50100814DE2F42E4F2D401B1A
:10328000410F0D5FC60160E024E533E0E32E0E94AC
:10329000A614C60161E00E94FF11F5010081F01A39
:1032A000F10E0D5FC60160E04F2D24E50E94481429
:1032B000C95ADF4F84E08993F5018081181B115DA5
:1032C0001883AB9669917991C6010E94CB258881BC
:1032D00081508883DF91CF911F910F91FF90EF90E4
:1032E000DF90CF90BF90AF9008954F925F926F9212
:1032F0007F928F929F92AF92BF92CF92DF92EF9286
:10330000FF920F931F932C01FC01628C738C6094CD
:103310007094882499240E94BA235B016C010E9456
:10332000BA237B018C01F201418052800E94BA23B2
:10333000460E571EA094B094C094D094E094F0949C
:1033400000951095C601B501A80197010E94522A67
:10335000A40193010E94522A460E571EC2010E94E8
:1033600015281F910F91FF90EF90DF90CF90BF90A5
:10337000AF909F908F907F906F905F904F90089547
:10338000AF92BF92CF92DF92EF92FF920F931F9373
:10339000CF93DF93EC01EFE7AE2EB12CA80EB91E50
:1033A000F501E080F180028113810E94AC23E61ACE
:1033B000F70A080B190B7EE7C72ED12CCC0EDD1EA9
:1033C000F601808190E0A0E0B0E08E159F05A00797
:1033D000B10708F081C08E0106581F4FF8018081A7
:1033E0009181A281B3810097A105B10509F474C050
:1033F0000E94AC23F6012081620F711D811D911D79
:10340000F5016083718382839383FE01E059FF4F4E
:1034100080819181A281B3810196A11DB11D80831C
:103420009183A283B383F8011082118212821382E6
:103430000E94BA23CA58DF4F688379838A839B83AB
:10344000C657D040CE010E94F110CE010A960E94CC
:10345000D711CE0148960E94631181E032C08E01DF
:103460000B5D1F4FC8010E944221C8010E94BF216D
:10347000C8010E94A222CE010E940D19CE010E9415
:103480009C188E01025B1F4FC8010E949716CC5AF0
:10349000DF4F8881C455D040882319F4C8010E94A9
:1034A000D7160E94BA23C658DF4F688379838A8370
:1034B0009B83249728813981621B730B7A936A93CB
:1034C00080E0DF91CF911F910F91FF90EF90DF90FF
:1034D000CF90BF90AF900895C658DF4F88819981F3
:1034E000AA81BB81CA57D0400097A105B10541F719
:1034F000B6CF2F923F924F925F926F927F928F92B0
:103500009F92AF92BF92CF92DF92EF92FF920F9372
:103510001F93DF93CF93CDB7DEB768970FB6F894BC
:10352000DEBF0FBECDBF5C017B876A874C8724E579
:1035300030E0A20EB31ED5011C92ECEAFFEFAE0EF6
:10354000BF1E842F90E0FB01E80FF91F3197108216
:103550005AE0452E512C4A0C5B1C45E2642E712C1E
:103560006A0C7B1C3EE4C32ED12CCA0CDB1C1D82D2
:103570001C82F2E0FB8324E52A8330E3398323E5D0
:10358000822E912C8A0C9B1C02E5202E312C2A0CB9
:103590003B1CA501495A5F4F5E874D87B501685AAC
:1035A0007F4F788B6F87D501A059BF4FBA8BA98BFE
:1035B0009C8B8B8B01979E8B8D8BC5010E94C019B4
:1035C0008823D9F3C20163E044E00E94B911882343
:1035D00031F0BB81BF5FBB83C3010E940B23C201DB
:1035E00061E044E00E94B911882331F0EB81E150A1
:1035F000EB83C3010E940B23C20162E044E00E94FE
:10360000B911882331F0FC81FF5FFC83C3010E9464
:103610000B23C20160E044E00E94B911882331F01D
:103620002C8121502C83C3010E940B233C8130311B
:1036300011F41C8205C04C814F3F11F45FE05C83A4
:103640006B81683011F41B8205C07B8177FF02C05B
:1036500087E08B83AC81BB27A7FDB095B987A8878E
:10366000D401EC912B81332727FD30953F832E83A6
:10367000D1018C9190E08095909528853985AC0199
:10368000249FC001259F900D349F900D1124895DCA
:10369000992787FD90955A81252F332727FD30954F
:1036A000820F931F62E070E00E94852A6A8384E1A2
:1036B0008E1BF0E0E095F0956E817F816E9F90010A
:1036C0006F9F300D7E9F300D1124820F992787FD4B
:1036D00090957981272F332727FD3095820F931FEF
:1036E00062E070E00E94852A6983C20164E00E9462
:1036F000AF11882399F18D81282F332727FD30952D
:10370000AD89BE892A173B07BCF48E819F8114E0E6
:10371000880F991F1A95E1F7BC818B0F09F44DCFE3
:103720008A3009F44ACF8D3009F447CFEA85FB850A
:10373000E20FF31F80831182ED81EF5FED83C30100
:103740000E94FF22FD818F2F992787FD90952B895D
:103750003C892817390714F43C853D83C20165E094
:103760000E94AF118823A9F04D8141504D83C301C0
:103770000E9405235D8157FF02C01D820AC06D8132
:10378000E62FFF27E7FDF0958A859B85E80FF91F57
:103790001082C20166E00E94AF11882309F442C082
:1037A000C3010E94FF22C5010E94C0198823D9F3DA
:1037B000C60167E27BE00E941626C6016A857B850A
:1037C0000E948927C60166E17BE00E941626C2019D
:1037D00064E00E94AF118823E1F0C3010E94FF2240
:1037E00068960FB6F894DEBF0FBECDBFCF91DF91C4
:1037F0001F910F91FF90EF90DF90CF90BF90AF900F
:103800009F908F907F906F905F904F903F902F9000
:103810000895C20165E00E94AF11882321F2C3011F
:103820000E940523EE24FF2410E033C0D1018C91C7
:1038300090E00196EF89F88D9C01E29FC001E39F23
:10384000900DF29F900D11246A81680FD4018C9124
:1038500090E00196FC01EE9EC001EF9E900DFE9E51
:10386000900D11244981480F2F89210FC60101E0D5
:103870000E9462152F89388D2F5F3F4F388F2F8B15
:103880002031310599F60894E11CF11C105F1038C5
:1038900019F0188E1F8ACACFD1018C91BAEF8B9F75
:1038A000802D11248250EA818E0FAD85BE858C93C8
:1038B000F40180818F5FF9818F0FAF85B8898C9378
:1038C000C60160E17BE00E94CB25F1018081FAEF27
:1038D0008F9F802D112482502A81820FAD85BE8555
:1038E0008C93F401808190E00196880F991FF981F3
:1038F0008F0FAF85B8898C93C6016AE07BE00E9488
:10390000CB25F1018081FAEF8F9F802D1124825009
:103910002A81820FAD85BE858C93F401208130E031
:103920002F5F3F4FC901880F991F820F931FF981A5
:103930008F0FAF85B8898C93C60164E07BE00E944D
:10394000CB25C60160E00E94FF11F101808190E06B
:10395000019628853985289FB001299F700D389FD1
:10396000700D112461503A81630FD4018C9190E065
:103970000196EE81FF81E89FA001E99F500DF89F1D
:10398000500D11244250F9814F0FC60127E00E94CB
:10399000BD12C60161E00E94FF11D1012C91822F5E
:1039A00090E0F4010081019648855985489F700197
:1039B000499FF00C589FF00C11245EEFE50E6A81D0
:1039C000E60E402F50E04F5F5F4FAE81BF81A49F56
:1039D000F001A59FF00DB49FF00D1124E350B981C3
:1039E000EB0F2E5F029762E070E00E94852A280F9D
:1039F0000B5FC6016E2D4E2FF3E0EF2E0E94481490
:103A0000F40180814EE2481BC60160E024E50E947B
:103A1000BD12C60160E00E94FF11D4010C914FE27B
:103A2000401B0F5FC60160E024E50E94D112ED85C6
:103A3000FE851082D4018C91B0E3B81BEF85F88924
:103A4000B083C60161E00E94FF11C6016A857B85D3
:103A50000E948927E989FA8980819181A281B381B5
:103A600087709070A070B0700497A105B10508F040
:103A7000A4CDFD812F2F332727FD30954D895E89F9
:103A8000241735070CF099CDD1018C9190E0289F37
:103A9000B001299F700D389F700D1124F4018081B1
:103AA00040E3481BC6012FE501E00E94621585CD69
:103AB0002F923F924F925F926F927F928F929F923E
:103AC000AF92BF92CF92DF92EF92FF920F931F932C
:103AD000DF93CF93CDB7DEB762970FB6F894DEBF12
:103AE0000FBECDBF6C016C837D834B8324E530E03A
:103AF000C20ED31EF60110822CEA3FEFC20ED31E77
:103B00001AE0A12EB12CAC0CBD1CB5E22B2E312C31
:103B10002C0C3D1CAEE44A2E512C4C0C5D1C10E0CC
:103B2000F0E37F2E66241A823FEF3983A601495ABB
:103B30005F4F5F834E83C601885A9F4F998788875E
:103B4000F601EA5AFF4FFB87EA8796012B5A3F4F4F
:103B50003D872C87E3E58E2E912C8C0C9D1C5B8180
:103B6000452F50E05F874E878B818150888BC6013F
:103B70000E94C0198823D9F3C50164E00E94AF11E7
:103B8000882369F4C50165E00E94AF11882339F4E8
:103B9000C50166E00E94AF11882309F4D3C0F40187
:103BA0000081C50164E00E94AF11882329F0C101A2
:103BB0000E94FF221983CBC0C1010E940523C7C008
:103BC000C50163E044E00E94B911882321F01F5F22
:103BD000C1010E940B23C50161E044E00E94B911BC
:103BE000882321F01150C1010E940B23812F9927B6
:103BF00087FD90952E853F858217930711F410E07D
:103C000002C017FD1889F4018081819F902D112435
:103C10008C5F682E691A28C0872D992787FD90959B
:103C2000262D332727FD3095821B930B0297D4F462
:103C3000898162960FB6F894DEBF0FBECDBFCF91DB
:103C4000DF911F910F91FF90EF90DF90CF90BF9089
:103C5000AF909F908F907F906F905F904F903F902C
:103C60002F900895F1E0FA83862D992787FD90958E
:103C7000272D332727FD3095820F931F62E070E0D8
:103C80000E94852A762EEE81FF811082E885F985D3
:103C9000608321E0EA85FB852083EC85FD85108229
:103CA0002C813D81C9019A8B898B00E0E12EFF2494
:103CB000E7FCF09420C0802F90E08E159F0569F4FA
:103CC00023E0EE81FF812083F40180818E9D802D91
:103CD0001124870DE885F9858083E989FA89659142
:103CE0007491C2010E9416260F5F29893A892E5FBE
:103CF0003F4F3A8B298B3B810317E8F2C20160E00A
:103D00000E94FF11F40140814E9D402D112441502D
:103D1000470DC20160E024E50E94BD12C20161E0CE
:103D20000E94FF11F40100810E9D402D112442508C
:103D3000470D0D5FC20160E024E573E0E72E0E94AD
:103D4000481415CFFA81FF2309F066CF39CF802FB1
:103D500090E0909581959F4F2E853F85AC01249FE3
:103D6000C001259F900D349F900D11246EEF662E9B
:103D7000680E52CF2F923F924F925F926F927F9236
:103D80008F929F92AF92BF92CF92DF92EF92FF926B
:103D90000F931F93DF93CF93CDB7DEB72B970FB65B
:103DA000F894DEBF0FBECDBF9B878A877A83698375
:103DB0005C834B838C0101591F4FF801808188235C
:103DC00009F422C18A859B858A5A9F4F9B878A87DF
:103DD00081E0EA85FB85808312921292E455F040DF
:103DE000FB87EA87108E9EE4E92EF12CEE0EFF1E73
:103DF000C70161E00E94FF118AE0282E312C8A85DC
:103E00009B85280E391EB5E26B2E712C680E791E2B
:103E1000E981FA81F491FD83A7E58A2E912C880E21
:103E2000991EF8E5CF2ED12CC80ED91EE2E54E2EF4
:103E3000512C480E591E8D5A9F4F9F838E8370E7D9
:103E4000A72EB12C8A859B85A80EB91E19870887D5
:103E50008A859B850E94C0198823D1F39D8199236F
:103E600011F410E003C0EE81FF811081C70160E012
:103E700040E024E33BE00E94E1148B819C81892B8C
:103E800041F0145FC70160E0412F2B813C810E940B
:103E9000E114F40110828CE0F6018083C70169818E
:103EA0007A810E94CB25F201208130E0C901880F80
:103EB000991F820F931F909581959F4F8D5AF40102
:103EC0008083EE81FF81208130E0C901880F991F36
:103ED000820F931F909581959F4F835DF60180839C
:103EE000F501808184FF04C0C70164EB7BE003C05F
:103EF000C70160EB7BE00E941626F201208130E0D2
:103F0000C901880F991F820F931F909581959F4F2C
:103F10008D5AF4018083F60180818F5F8083EA856A
:103F2000FB8582A5882321F0C7016CEA7BE003C0F2
:103F3000C70168EA7BE00E941626F201808190E0CA
:103F40009C01220F331F280F391F309521953F4FB9
:103F50002D5AF4012083F60180818F5F8083C70191
:103F600064EA7BE00E941626C10165E00E94AF1161
:103F7000882351F0EA85FB8562A56F5FC3010E942B
:103F80001123C3010E940B23C10164E00E94AF1101
:103F9000882399F4E885F9856081262F30E040E098
:103FA00050E0F50180819181A281B381821793074E
:103FB000A407B50708F16F3FF9F08A859B85815901
:103FC0009F4F9B878A878FEFEA85FB858083EF561B
:103FD000F040FB87EA87C30160E00E94E920C3014B
:103FE0000E94FF2281E0EA85FB85808F0DC08A85D3
:103FF0009B850E9457182CCFC10166E00E94AF112B
:10400000882309F425CFF3CF2B960FB6F894DEBFA3
:104010000FBECDBFCF91DF911F910F91FF90EF9019
:10402000DF90CF90BF90AF909F908F907F906F90D8
:104030005F904F903F902F900895AB0169EB7BE02C
:104040000E94BA1E0895AF92BF92CF92DF92EF9274
:104050000F93CF93DF936C018EE790E0C80ED91ECB
:1040600082E3F601808381E090E0A0E0B0E0B293CB
:10407000A293929382936F0185EF9FEFC80ED91E92
:104080008FEFF601808381E99FEFC80ED91EC6012C
:104090000E94AD17C6010E94E810C6016FEF0E9492
:1040A000EC104AE0A42EB12CAC0CBD1CC5010E9442
:1040B0009F11C5010E94D711C60148960E9459114F
:1040C000C601825B9F4F6DE04BE020E10FE03EE0D8
:1040D000E32E0E94EC16E601A596CE010E94212354
:1040E000C50165E00E94AF11882329F0CE0160E090
:1040F0000E94112306C0CE016AEB7BE040E00E94E3
:10410000F820DF91CF910F91EF90DF90CF90BF908B
:10411000AF9008950F93DC01002309F047C062308F
:10412000A1F1633030F4662351F0613009F03EC0F4
:1041300009C0633081F1643009F038C032C056964E
:104140004C9334C0842F90E0880F991F1F962D91B7
:104150003C915097280F391FF901859194919096C1
:104160009C938E935F97FC0145915491642F919697
:104170004C939197252F3327842F90E028173907E8
:1041800008F4652F92966C9311C059964C935997E9
:104190005A962C930BC05B964C935B975C962C9332
:1041A00005C05D964C935D975E962C930F91089594
:1041B000FC01662369F4178A158A14A213A2108ED3
:1041C0001092190410921804109216041092B40060
:1041D0000895CF93DF93EC01662319F40E94D82051
:1041E0001982DF91CF91089560E00E94E92008953F
:1041F0000F931F93CF93DF93EC018B01442371F452
:1042000060E00E94E9201E870D871B8A1A8A81E0E0
:10421000898389E08E8B198E1B8E1D8EDF91CF9145
:104220001F910F910895CF93DF93EC01662339F529
:104230008881882321F18981882309F5898590E087
:10424000880F991FEF81F885E80FF91F85919491E8
:104250002FEF8F3F920711F4188211C09C8790E0D6
:10426000880F991FEA85FB85E80FF91F6591749106
:10427000CE0140E00E94F82089858F5F8987DF9119
:10428000CF91089560E00E94132108950F93CF937A
:10429000DF93EC01662309F06EC08981882309F45D
:1042A0006AC08D89882309F066C0EA89FB89EE0F10
:1042B000FF1F4D855E85E40FF51F25913491211573
:1042C000310509F040C08989813031F41B8A1A8A8E
:1042D000FA012591349137C019828881882379F0B9
:1042E000CE0160E00E9413218A899B89880F991F63
:1042F000ED85FE85E80FF91F2591349124C0CE018C
:1043000060E00E94D82037C0E6E036952795EA9510
:10431000E1F76F70422F4F7175E0369527957A95CA
:10432000E1F72051CE0100E00E948A208A899B8912
:1043300001969B8B8A8B880F991FED85FE85E80F70
:10434000F91F25913491B901769567957695679512
:1043500020FDDACF862F8F738C8B3D8B1DA21CA284
:104360001BA281E08F8B80931604188E8A899B890B
:1043700001969B8B8A8BDF91CF910F91089560E01E
:104380000E9446210895CF93DF93EC01662309F044
:10439000D6C08F89882309F4D2C08D89882321F45F
:1043A000CE010E94D820CBC081508D8B8DA1882357
:1043B00009F03BC08BA19CA10196880F991FEF8D3E
:1043C000F8A1E80FF91F85919491282F27702EA34B
:1043D000AC0163E0569547956A95E1F79A013695E9
:1043E0002795892F9927869586958FA32F738C8182
:1043F000289F202D11242DA3417040931A048BA1D6
:104400009CA101969CA38BA329A130E0821793075E
:1044100060F08AA1882329F0281B31093CA32BA333
:1044200004C0CE0160E00E94D8208DA181508DA3F0
:10443000988D9F5F988F2FA18C89280F8C85280FCE
:104440002A836B8D662369F0892F992787FD9095C4
:1044500070E00E94852A8C8D869F802D1124820F0A
:104460008A838A8190E0CB966BE370E00E94852A74
:104470008A832E892B83698D662379F0888D77272F
:1044800067FD7095992787FD90950E94852A8A8DF2
:10449000869F802D1124820F8B836D8D662399F06A
:1044A000888D992787FD909570E00E94852ACB0121
:1044B00062E070E00E94852A9E8D899F802D1124E4
:1044C0009B81890F8B838B818A300CF089E087FD7B
:1044D00080E08B838C898F3309F41B82F894EA8106
:1044E000F0E0E252F44FE491E09317042D8130E0C4
:1044F0008B81992787FD9095A901489F9001499F3D
:10450000300D589F300D112488A590E0A901489FD7
:104510009001499F300D589F300D11248EA199278D
:1045200087FD9095AC01249FC001259F900D349F7D
:10453000900D112480931804809319047894DF91CE
:10454000CF91089560E00E94C321089560911804FE
:10455000662381F1809115048F5F809315049091FB
:104560001704891738F130E080911604882309F484
:1045700031E0309316041092150480911A048823B8
:10458000A9F080912B0123E4829FC0011124895B53
:1045900080932B0190E070E00E94712A80931904AF
:1045A00005C0809119048093B40008953323C9F79E
:1045B00080E0F9CF08951F920F920FB60F92112449
:1045C0002F933F934F935F936F937F938F939F931B
:1045D000AF93BF93EF93FF930E94A622FF91EF91B9
:1045E000BF91AF919F918F917F916F915F914F910B
:1045F0003F912F910F900FBE0F901F90189566ED71
:104600007BE040E00E94F82008956EEC7BE040E003
:104610000E94F820089568EC7BE040E00E94F820BA
:104620000895FC01862F668170E06F5F7F4F9927A8
:1046300087FD90950E94852A85830895FC018581D8
:1046400008950F93FC0181E0848384E080A789E1D1
:104650009CE0908B8787CF0161E040E020E000E0A4
:104660000E948A2083E061E070E00E946324E1EB15
:10467000F0E08081887F81608083F89410928000D0
:10468000E1E8F0E01082109285001092840088E149
:1046900091E0909389008093880080818860808376
:1046A000808181608083EFE6F0E08081826080839A
:1046B00078940F910895CB01642F0E944B2B08959D
:1046C000CB010E94432B08951F920F920FB60F92B9
:1046D00011242F933F938F939F93AF93BF93809118
:1046E000200490912104A0912204B09123043091E0
:1046F00024040196A11DB11D232F2D5F2D3720F01D
:104700002D570196A11DB11D2093240480932004F0
:1047100090932104A0932204B093230480911C045D
:1047200090911D04A0911E04B0911F040196A11D3B
:10473000B11D80931C0490931D04A0931E04B0939C
:104740001F04BF91AF919F918F913F912F910F9037
:104750000FBE0F901F9018958FB7F89420912004EA
:104760003091210440912204509123048FBFB9015C
:10477000CA0108959FB7F89420911C0430911D043C
:1047800040911E0450911F0486B5A89B06C08F3F20
:1047900021F02F5F3F4F4F4F5F4F9FBF542F432F4D
:1047A000322F2227280F311D411D511D82E0220F7B
:1047B000331F441F551F8A95D1F7B901CA010895C7
:1047C000EF92FF920F931F93CF93DF937B018C01A6
:1047D0000E94BA23EB010EC00E94BA236C1B7D0B12
:1047E000685E7340C8F30894E108F10801091109F3
:1047F000C851DC4FE114F1040105110569F7DF919F
:10480000CF911F910F91FF90EF900895789484B508
:10481000826084BD84B5816084BD85B5826085BDBC
:1048200085B5816085BDEEE6F0E0808181608083A2
:10483000E1E8F0E010828081826080838081816085
:104840008083E0E8F0E0808181608083E1EBF0E04C
:10485000808184608083E0EBF0E0808181608083F0
:10486000EAE7F0E0808184608083808182608083D9
:104870008081816080838081806880831092C10004
:104880000895982F8E3008F09E50977080912C01DB
:104890008295880F880F807C892B80937C00809183
:1048A0007A00806480937A0080917A0086FDFCCF44
:1048B0002091780040917900942F80E030E0282BFF
:1048C000392BC90108951F93CF93DF93182FEB0164
:1048D00061E00E94C324209709F44AC0CF3FD1056C
:1048E00009F449C0E12FF0E0E559F34F849183309A
:1048F000C1F0843028F4813051F08230B1F50CC021
:10490000863019F1873049F1843079F514C084B5C7
:10491000806884BDC7BD33C084B5806284BDC8BD16
:104920002EC080918000806880938000D0938900A1
:10493000C093880024C080918000806280938000B2
:10494000D0938B00C0938A001AC08091B000806819
:104950008093B000C093B30012C08091B000806219
:104960008093B000C093B4000AC0C038D1051CF4D5
:10497000812F60E002C0812F61E00E942F25DF912E
:10498000CF911F910895CF93DF93482F50E0CA0134
:10499000895A934FFC0134914D5B534FFA01849136
:1049A000882369F190E0880F991FFC01EB5DF34FBC
:1049B000A591B491FC01E15DF34FC591D4916623BB
:1049C00051F42FB7F8948C91932F909589238C9361
:1049D000888189230BC0623061F42FB7F8948C91E1
:1049E000932F909589238C938881832B88832FBF65
:1049F00006C09FB7F8948C91832B8C939FBFDF9157
:104A0000CF910895833071F0843028F48130A1F083
:104A1000823021F514C08630B1F08730D1F0843077
:104A2000E9F404C0809180008F7703C080918000FA
:104A30008F7D80938000089584B58F7702C084B500
:104A40008F7D84BD08958091B0008F778093B000F2
:104A500008958091B0008F7D8093B0000895FF92FB
:104A60000F931F93F62E482F50E0CA018559934F9C
:104A7000FC012491CA01895A934FFC0114914D5BAA
:104A8000534FFA0104910023C9F0222319F0822F19
:104A90000E940225E02FF0E0EE0FFF1FE15DF34FD3
:104AA000A591B4919FB7F894FF2021F48C911095B3
:104AB000812302C08C91812B8C939FBF1F910F91FA
:104AC000FF9008950F931F93482F50E0CA01855916
:104AD000934FFC012491CA01895A934FFC01049120
:104AE0004D5B534FFA011491112319F420E030E08B
:104AF00015C0222319F0822F0E940225812F90E0F9
:104B0000880F991F875C934FFC01A591B4918C91FC
:104B100020E030E0802311F021E030E0C9011F9156
:104B20000F910895CF93DF930E9406240E94B11045
:104B3000C0E0D0E00E9440102097E1F30E94000006
:104B4000F9CFCF92DF92EF92FF920F931F93CF9303
:104B5000DF937C016B018A01C0E0D0E00FC0D60179
:104B60006D916D01D701ED91FC910190F081E02DE7
:104B7000C7010995C80FD91F015010400115110533
:104B800071F7CE01DF91CF911F910F91FF90EF90C0
:104B9000DF90CF900895EF92FF920F931F93CF93E2
:104BA000DF937C018B01C0E0D0E0F8010F5F1F4F65
:104BB0006491662359F0D701ED91FC910190F08149
:104BC000E02DC7010995C80FD91FEFCFCE01DF91A6
:104BD000CF911F910F91FF90EF900895DC01ED911F
:104BE000FC910190F081E02D09950895EF92FF92DC
:104BF0000F931F938C01DC01ED91FC910190F081EA
:104C0000E02D6DE009957C01D801ED91FC910190BA
:104C1000F081E02DC8016AE009959C012E0D3F1D31
:104C2000C9011F910F91FF90EF900895EF92FF92AD
:104C30000F931F937C010E94CB258C01C7010E941A
:104C4000F6259C01200F311FC9011F910F91FF9084
:104C5000EF900895CF93DF93EC016115710519F47E
:104C600020E030E00FC0DB010D900020E9F7119744
:104C7000A61BB70BE881F9810280F381E02DAD011D
:104C800009959C01C901DF91CF9108954F925F92E0
:104C90007F928F929F92AF92BF92CF92DF92EF92CC
:104CA000FF920F931F93DF93CF93CDB7DEB7A197FA
:104CB0000FB6F894DEBF0FBECDBF2C01742ECB0112
:104CC000223008F42AE019A231E2C32ED12CCC0EF6
:104CD000DD1E822E9924AA24BB24672D752FA501E1
:104CE00094010E94982A79018A01C801B701A5019F
:104CF00094010E94522A472D461B0894C108D108EE
:104D00004A3014F4405D01C0495CF6014083E1146F
:104D1000F1040105110521F07E2C5F2DC801DDCFC6
:104D2000C201B6010E942A26A1960FB6F894DEBFF2
:104D30000FBECDBFCF91DF911F910F91FF90EF90EC
:104D4000DF90CF90BF90AF909F908F907F905F90BB
:104D50004F900895DC012115310541F4ED91FC914E
:104D60000190F081E02D642F099508950E94462658
:104D70000895EF92FF920F931F939A017B0100E039
:104D800010E0B801A7010E94AA261F910F91FF9081
:104D9000EF900895CF92DF92EF92FF920F931F93BF
:104DA0006C017B019A0100E010E0B801A7010E94AC
:104DB000AA268C01C6010E94F625080F191FC801FA
:104DC0001F910F91FF90EF90DF90CF900895EF9299
:104DD000FF920F931F939A01E62EFF2400E010E04C
:104DE000B801A7010E94AA261F910F91FF90EF9092
:104DF0000895CF92DF92EF92FF920F931F936C0171
:104E0000E62E9A01FF2400E010E0B801A7010E94FD
:104E1000AA268C01C6010E94F625080F191FC80199
:104E20001F910F91FF90EF90DF90CF900895CF9258
:104E3000DF92EF92FF920F931F93CF93DF93EC01DA
:104E40006A017B012115310541F4E881F981019066
:104E5000F081E02D642F09951FC02A303105D1F46F
:104E600077FF17C0E881F9810190F081E02D6DE2B4
:104E700009958C0144275527BA014C195D096E0923
:104E80007F09CE012AE00E9446269801280F391F8B
:104E900004C02AE00E9446269C01C901DF91CF91FF
:104EA0001F910F91FF90EF90DF90CF900895EF92B8
:104EB000FF920F931F937B019A010027F7FC009547
:104EC000102FB801A7010E9417271F910F91FF9083
:104ED000EF900895CF92DF92EF92FF920F931F937E
:104EE0006C017B019A010027F7FC0095102FB80197
:104EF000A7010E9417278C01C6010E94F625080F02
:104F0000191FC8011F910F91FF90EF90DF90CF9074
:104F100008950E942A2608952F923F924F925F9201
:104F20006F927F928F929F92AF92BF92CF92DF92B9
:104F3000EF92FF920F931F93DF93CF93CDB7DEB71E
:104F40003B014C0119012A016D897E898F89988D59
:104F50006A197B098C099D09621A730A840A950AE9
:104F6000A40193010E94522AE218F30804091509CA
:104F7000A80197010E94BA2A2A0D3B1D4C1D5D1DF8
:104F8000B901CA01CF91DF911F910F91FF90EF906E
:104F9000DF90CF90BF90AF909F908F907F906F9059
:104FA0005F904F903F902F900895EF92FF920F9354
:104FB0001F937B018C01611571058105910529F411
:104FC00020E030E040E050E00BC00E942E2BA80112
:104FD00097010E94BA2AAC01CB01DA019C01AD0114
:104FE000B901CA011F910F91FF90EF900895EF92C0
:104FF000FF920F931F937B018C0162177307840745
:10500000950764F4261B370B480B590BCA01B901ED
:105010000E94D527E60EF71E081F191FB701C80109
:105020001F910F91FF90EF900895009729F0BC0118
:1050300080E090E00E94332B08955058BB27AA27A8
:105040000ED034C1FDD030F002D120F031F49F3FBA
:1050500011F41EF4F2C00EF4E095E7FBE8C0E92F6E
:1050600047D180F3BA17620773078407950718F0D2
:1050700071F49EF55FC10EF4E0950B2EBA2FA02DB2
:105080000B01B90190010C01CA01A0011124FF27F5
:10509000591B99F0593F50F4503E68F11A16F040F0
:1050A000A22F232F342F4427585FF3CF46953795EF
:1050B0002795A795F0405395C9F77EF41F16BA0BB4
:1050C000620B730B840BBAF09150A1F0FF0FBB1F62
:1050D000661F771F881FC2F70EC0BA0F621F731FAB
:1050E000841F48F4879577956795B795F7959E3F08
:1050F00008F0B3CF9395880F08F09927EE0F979596
:1051000087950895ACD0E395E2C004D06894B111BE
:1051100012C10895F5D088F09F5790F0B92F9927C4
:10512000B751A0F0D1F0660F771F881F991F1AF0B2
:10513000BA95C9F712C0B13081F0FCD0B1E0089542
:10514000F9C0672F782F8827B85F39F0B93FCCF3C3
:10515000869577956795B395D9F73EF490958095A8
:10516000709561957F4F8F4F9F4F0895E89409C0C8
:1051700097FB3EF490958095709561957F4F8F4F8A
:105180009F4F9923A9F0F92F96E9BB279395F695A0
:10519000879577956795B795F111F8CFFAF4BB0F1E
:1051A00011F460FF1BC06F5F7F4F8F4F9F4F16C082
:1051B000882311F096E911C0772321F09EE8872F0C
:1051C000762F05C0662371F096E8862F70E060E0C8
:1051D0002AF09A95660F771F881FDAF7880F969541
:1051E000879597F90895990F0008550FAA0BE0E8E5
:1051F000FEEF16161706E807F907C0F01216130699
:10520000E407F50798F0621B730B840B950B39F4D8
:105210000A2661F0232B242B252B21F408950A263E
:1052200009F4A140A6958FEF811D811D089597F97E
:105230009F6780E870E060E008959FEF80EC08953C
:1052400000240A9416161706180609060895002465
:105250000A9412161306140605060895EECF50D0D0
:10526000E8F3E894E0E0BB279F57F0F02AED3FE039
:1052700049EC06C0EE0FBB0F661F771F881F28F092
:10528000B23A62077307840728F0B25A620B730BB5
:10529000840BE3959A9572F7803830F49A95BB0F9A
:1052A000661F771F881FD2F79048BAC0092E039453
:1052B000000C11F4882352F0BB0F40F4BF2B11F403
:1052C00060FF04C06F5F7F4F8F4F9F4F0895EF9334
:1052D000E0FF06C0A2EA2AED3FE049EC5FEBBFDE4B
:1052E000E5DF0F90039401FC9058E8E6F0E0A4C0DD
:1052F00057FD9058440F551F59F05F3F71F0479587
:10530000880F97FB991F61F09F3F79F0879508956B
:10531000121613061406551FF2CF4695F1DF08C08A
:10532000161617061806991FF1CF869571056105A7
:1053300008940895E894BB2766277727CB0197F94F
:10534000089551DF08F48FEF08950BD0AFCF78DFC9
:1053500028F07DDF18F0952309F069CF6ECF112476
:10536000EACFC6DFA0F3959FD1F3950F50E0551F0C
:10537000629FF001729FBB27F00DB11D639FAA27AA
:10538000F00DB11DAA1F649F6627B00DA11D661FF9
:10539000829F2227B00DA11D621F739FB00DA11D1A
:1053A000621F839FA00D611D221F749F3327A00DD4
:1053B000611D231F849F600D211D822F762F6A2F70
:1053C00011249F5750408AF0E1F088234AF0EE0FF5
:1053D000FF1FBB1F661F771F881F91505040A9F702
:1053E0009E3F510570F023CFA6CF5F3FECF3983E70
:1053F000DCF3869577956795B795F795E7959F5F69
:10540000C1F7FE2B880F911D9695879597F9089502
:105410009F9325DF0F9007FCEE5F59CF9F3F31F040
:10542000915020F4879577956795B795880F911DD2
:105430009695879597F908959F938F937F936F9390
:10544000FF93EF939B01AC0180DFEF91FF9105D0BB
:105450002F913F914F915F9178CFDF93CF931F931F
:105460000F93FF92EF92DF927B018C01689405C04D
:10547000DA2EEF0176DFFE01E894A59125913591B2
:1054800045915591AEF3EF01EADDFE019701A801C8
:10549000DA9479F7DF90EF90FF900F911F91CF9101
:1054A000DF910895629FD001739FF001829FE00D0C
:1054B000F11D649FE00DF11D929FF00D839FF00D93
:1054C000749FF00D659FF00D9927729FB00DE11D3F
:1054D000F91F639FB00DE11DF91FBD01CF0111241C
:1054E0000895AA1BBB1B51E107C0AA1FBB1FA6172B
:1054F000B70710F0A61BB70B881F991F5A95A9F77D
:1055000080959095BC01CD01089597FB092E072643
:105510000AD077FD04D0E5DF06D000201AF470959C
:1055200061957F4F0895F6F7909581959F4F089567
:10553000A1E21A2EAA1BBB1BFD010DC0AA1FBB1F97
:10554000EE1FFF1FA217B307E407F50720F0A21B09
:10555000B30BE40BF50B661F771F881F991F1A9476
:1055600069F760957095809590959B01AC01BD01A0
:10557000CF01089597FB092E05260ED057FD04D0C4
:10558000D7DF0AD0001C38F450954095309521950E
:105590003F4F4F4F5F4F0895F6F790958095709568
:1055A00061957F4F8F4F9F4F0895EE0FFF1F05901E
:1055B000F491E02D0994A0E0B0E0E1EEFAE20C9461
:1055C000612BEC01A880B980CA80DB80A114B104F2
:1055D000C104D10441F484E2A82E89EDB82E8BE5F4
:1055E000C82E87E0D82EC601B5012DE133EF41E08A
:1055F00050E00E94BA2A27EA31E440E050E00E94DD
:10560000522A7B018C01C601B5012DE133EF41E047
:1056100050E00E94BA2ACA01B9012CEE34EF4FEFD4
:105620005FEF0E94522A6E0D7F1D801F911F97FF12
:1056300004C06150704080409048688379838A83B9
:105640009B839B01AC015F77B901CA01CDB7DEB77F
:10565000EAE00C947D2B0E94DB2A089587E091E01C
:105660000E94DB2A089560930701709308018093DC
:10567000090190930A010895FB01DC0101900D924C
:105680000020E1F70895F999FECF92BD81BDF89A07
:10569000992780B50895262FF999FECF1FBA92BD9C
:1056A00081BD20BD0FB6F894FA9AF99A0FBE019603
:1056B00008952F923F924F925F926F927F928F92B6
:1056C0009F92AF92BF92CF92DF92EF92FF920F9391
:1056D0001F93CF93DF93CDB7DEB7CA1BDB0B0FB69B
:1056E000F894DEBF0FBECDBF09942A883988488858
:1056F0005F846E847D848C849B84AA84B984C884EE
:10570000DF80EE80FD800C811B81AA81B981CE0FE4
:10571000D11D0FB6F894DEBF0FBECDBFED010895C9
:04572000F894FFCF2B
:105724004C4F41444552000100000050047204945F
:1057340004B604D804FA041C053E0560058205A4D9
:1057440005C605E8050A062C064E06010100000000
:06575400003A16A1250039
:00000001FF
